{
  "address": "0x9d85847ABE7F8D955b99c2350e8DB151Fb01CDeF",
  "abi": [
    {
      "inputs": [
        {
          "internalType": "address",
          "name": "_stakingToken",
          "type": "address"
        },
        {
          "internalType": "address",
          "name": "_treasury",
          "type": "address"
        }
      ],
      "stateMutability": "nonpayable",
      "type": "constructor"
    },
    {
      "inputs": [],
      "name": "AccessControlBadConfirmation",
      "type": "error"
    },
    {
      "inputs": [
        {
          "internalType": "address",
          "name": "account",
          "type": "address"
        },
        {
          "internalType": "bytes32",
          "name": "neededRole",
          "type": "bytes32"
        }
      ],
      "name": "AccessControlUnauthorizedAccount",
      "type": "error"
    },
    {
      "anonymous": false,
      "inputs": [
        {
          "indexed": true,
          "internalType": "address",
          "name": "newRegistry",
          "type": "address"
        }
      ],
      "name": "IdentityRegistryUpdated",
      "type": "event"
    },
    {
      "anonymous": false,
      "inputs": [
        {
          "indexed": true,
          "internalType": "bytes32",
          "name": "role",
          "type": "bytes32"
        },
        {
          "indexed": true,
          "internalType": "bytes32",
          "name": "previousAdminRole",
          "type": "bytes32"
        },
        {
          "indexed": true,
          "internalType": "bytes32",
          "name": "newAdminRole",
          "type": "bytes32"
        }
      ],
      "name": "RoleAdminChanged",
      "type": "event"
    },
    {
      "anonymous": false,
      "inputs": [
        {
          "indexed": true,
          "internalType": "bytes32",
          "name": "role",
          "type": "bytes32"
        },
        {
          "indexed": true,
          "internalType": "address",
          "name": "account",
          "type": "address"
        },
        {
          "indexed": true,
          "internalType": "address",
          "name": "sender",
          "type": "address"
        }
      ],
      "name": "RoleGranted",
      "type": "event"
    },
    {
      "anonymous": false,
      "inputs": [
        {
          "indexed": true,
          "internalType": "bytes32",
          "name": "role",
          "type": "bytes32"
        },
        {
          "indexed": true,
          "internalType": "address",
          "name": "account",
          "type": "address"
        },
        {
          "indexed": true,
          "internalType": "address",
          "name": "sender",
          "type": "address"
        }
      ],
      "name": "RoleRevoked",
      "type": "event"
    },
    {
      "anonymous": false,
      "inputs": [
        {
          "indexed": true,
          "internalType": "uint256",
          "name": "agentId",
          "type": "uint256"
        },
        {
          "indexed": false,
          "internalType": "uint256",
          "name": "amount",
          "type": "uint256"
        },
        {
          "indexed": false,
          "internalType": "string",
          "name": "reason",
          "type": "string"
        }
      ],
      "name": "Slashed",
      "type": "event"
    },
    {
      "anonymous": false,
      "inputs": [
        {
          "indexed": true,
          "internalType": "uint256",
          "name": "agentId",
          "type": "uint256"
        },
        {
          "indexed": true,
          "internalType": "address",
          "name": "staker",
          "type": "address"
        },
        {
          "indexed": false,
          "internalType": "uint256",
          "name": "amount",
          "type": "uint256"
        }
      ],
      "name": "Staked",
      "type": "event"
    },
    {
      "anonymous": false,
      "inputs": [
        {
          "indexed": true,
          "internalType": "address",
          "name": "newTreasury",
          "type": "address"
        }
      ],
      "name": "TreasuryUpdated",
      "type": "event"
    },
    {
      "anonymous": false,
      "inputs": [
        {
          "indexed": true,
          "internalType": "uint256",
          "name": "agentId",
          "type": "uint256"
        },
        {
          "indexed": true,
          "internalType": "address",
          "name": "staker",
          "type": "address"
        },
        {
          "indexed": false,
          "internalType": "uint256",
          "name": "amount",
          "type": "uint256"
        }
      ],
      "name": "Unstaked",
      "type": "event"
    },
    {
      "inputs": [],
      "name": "AUDITOR_ROLE",
      "outputs": [
        {
          "internalType": "bytes32",
          "name": "",
          "type": "bytes32"
        }
      ],
      "stateMutability": "view",
      "type": "function"
    },
    {
      "inputs": [],
      "name": "DEFAULT_ADMIN_ROLE",
      "outputs": [
        {
          "internalType": "bytes32",
          "name": "",
          "type": "bytes32"
        }
      ],
      "stateMutability": "view",
      "type": "function"
    },
    {
      "inputs": [
        {
          "internalType": "uint256",
          "name": "",
          "type": "uint256"
        }
      ],
      "name": "agentOwners",
      "outputs": [
        {
          "internalType": "address",
          "name": "",
          "type": "address"
        }
      ],
      "stateMutability": "view",
      "type": "function"
    },
    {
      "inputs": [
        {
          "internalType": "bytes32",
          "name": "role",
          "type": "bytes32"
        }
      ],
      "name": "getRoleAdmin",
      "outputs": [
        {
          "internalType": "bytes32",
          "name": "",
          "type": "bytes32"
        }
      ],
      "stateMutability": "view",
      "type": "function"
    },
    {
      "inputs": [
        {
          "internalType": "uint256",
          "name": "_agentId",
          "type": "uint256"
        }
      ],
      "name": "getStake",
      "outputs": [
        {
          "internalType": "uint256",
          "name": "",
          "type": "uint256"
        }
      ],
      "stateMutability": "view",
      "type": "function"
    },
    {
      "inputs": [
        {
          "internalType": "bytes32",
          "name": "role",
          "type": "bytes32"
        },
        {
          "internalType": "address",
          "name": "account",
          "type": "address"
        }
      ],
      "name": "grantRole",
      "outputs": [],
      "stateMutability": "nonpayable",
      "type": "function"
    },
    {
      "inputs": [
        {
          "internalType": "bytes32",
          "name": "role",
          "type": "bytes32"
        },
        {
          "internalType": "address",
          "name": "account",
          "type": "address"
        }
      ],
      "name": "hasRole",
      "outputs": [
        {
          "internalType": "bool",
          "name": "",
          "type": "bool"
        }
      ],
      "stateMutability": "view",
      "type": "function"
    },
    {
      "inputs": [],
      "name": "identityRegistry",
      "outputs": [
        {
          "internalType": "address",
          "name": "",
          "type": "address"
        }
      ],
      "stateMutability": "view",
      "type": "function"
    },
    {
      "inputs": [
        {
          "internalType": "bytes32",
          "name": "role",
          "type": "bytes32"
        },
        {
          "internalType": "address",
          "name": "callerConfirmation",
          "type": "address"
        }
      ],
      "name": "renounceRole",
      "outputs": [],
      "stateMutability": "nonpayable",
      "type": "function"
    },
    {
      "inputs": [
        {
          "internalType": "bytes32",
          "name": "role",
          "type": "bytes32"
        },
        {
          "internalType": "address",
          "name": "account",
          "type": "address"
        }
      ],
      "name": "revokeRole",
      "outputs": [],
      "stateMutability": "nonpayable",
      "type": "function"
    },
    {
      "inputs": [
        {
          "internalType": "address",
          "name": "_identityRegistry",
          "type": "address"
        }
      ],
      "name": "setIdentityRegistry",
      "outputs": [],
      "stateMutability": "nonpayable",
      "type": "function"
    },
    {
      "inputs": [
        {
          "internalType": "address",
          "name": "_treasury",
          "type": "address"
        }
      ],
      "name": "setTreasury",
      "outputs": [],
      "stateMutability": "nonpayable",
      "type": "function"
    },
    {
      "inputs": [
        {
          "internalType": "uint256",
          "name": "_agentId",
          "type": "uint256"
        },
        {
          "internalType": "uint256",
          "name": "_amount",
          "type": "uint256"
        },
        {
          "internalType": "string",
          "name": "_reason",
          "type": "string"
        }
      ],
      "name": "slash",
      "outputs": [],
      "stateMutability": "nonpayable",
      "type": "function"
    },
    {
      "inputs": [
        {
          "internalType": "uint256",
          "name": "_agentId",
          "type": "uint256"
        },
        {
          "internalType": "uint256",
          "name": "_amount",
          "type": "uint256"
        }
      ],
      "name": "stake",
      "outputs": [],
      "stateMutability": "nonpayable",
      "type": "function"
    },
    {
      "inputs": [
        {
          "internalType": "uint256",
          "name": "",
          "type": "uint256"
        }
      ],
      "name": "stakes",
      "outputs": [
        {
          "internalType": "uint256",
          "name": "",
          "type": "uint256"
        }
      ],
      "stateMutability": "view",
      "type": "function"
    },
    {
      "inputs": [],
      "name": "stakingToken",
      "outputs": [
        {
          "internalType": "contract IERC20",
          "name": "",
          "type": "address"
        }
      ],
      "stateMutability": "view",
      "type": "function"
    },
    {
      "inputs": [
        {
          "internalType": "bytes4",
          "name": "interfaceId",
          "type": "bytes4"
        }
      ],
      "name": "supportsInterface",
      "outputs": [
        {
          "internalType": "bool",
          "name": "",
          "type": "bool"
        }
      ],
      "stateMutability": "view",
      "type": "function"
    },
    {
      "inputs": [],
      "name": "treasury",
      "outputs": [
        {
          "internalType": "address",
          "name": "",
          "type": "address"
        }
      ],
      "stateMutability": "view",
      "type": "function"
    },
    {
      "inputs": [
        {
          "internalType": "uint256",
          "name": "_agentId",
          "type": "uint256"
        },
        {
          "internalType": "uint256",
          "name": "_amount",
          "type": "uint256"
        }
      ],
      "name": "unstake",
      "outputs": [],
      "stateMutability": "nonpayable",
      "type": "function"
    }
  ],
  "transactionHash": "0x74e4bdda2959998fd5c497ccdd7887341558d4330c2d899859b99acb667c6be4",
  "args": [
    "0x348772553B5Ff0b893D445E16e03bb4b5dfd4802",
    "0xa4C6396DD63fF1D71c3C9F9eFC8Af585A2d7EA88"
  ],
  "numDeployments": 1,
  "solcInputHash": "f1ed901375f9054495ecfb0a7c9fdbfb",
  "bytecode": "0x608060405234801561001057600080fd5b50604051620011053803806200110583398101604081905261003191610196565b6001600160a01b03811661008b5760405162461bcd60e51b815260206004820152601860248201527f496e76616c696420747265617375727920616464726573730000000000000000604482015260640160405180910390fd5b600180546001600160a01b038085166001600160a01b03199283161790925560058054928416929091169190911790556100c66000336100ce565b5050506101c9565b6000828152602081815260408083206001600160a01b038516845290915281205460ff16610170576000838152602081815260408083206001600160a01b03861684529091529020805460ff191660011790556101283390565b6001600160a01b0316826001600160a01b0316847f2f8788117e7eff1d82e926ec794901d17c78024a50270940304540a733656f0d60405160405180910390a4506001610174565b5060005b92915050565b80516001600160a01b038116811461019157600080fd5b919050565b600080604083850312156101a957600080fd5b6101b28361017a565b91506101c06020840161017a565b90509250929050565b610f2c80620001d96000396000f3fe608060405234801561001057600080fd5b50600436106101215760003560e01c80637e86857f116100ad578063cbf3f86111610071578063cbf3f8611461029c578063ce325bf8146102af578063d547741f146102cf578063d5a44f86146102e2578063f0f442601461030257600080fd5b80637e86857f1461023257806391d148541461025b5780639e2c8a5b1461026e578063a217fddf14610281578063b759e8371461028957600080fd5b806336568abe116100f457806336568abe146101bf57806361d027b3146101d25780636e1d616e146101e557806372f702f31461020c5780637b0472f01461021f57600080fd5b806301ffc9a714610126578063134e18f41461014e578063248a9ca3146101795780632f2ff15d146101aa575b600080fd5b610139610134366004610c7d565b610315565b60405190151581526020015b60405180910390f35b600454610161906001600160a01b031681565b6040516001600160a01b039091168152602001610145565b61019c610187366004610cae565b60009081526020819052604090206001015490565b604051908152602001610145565b6101bd6101b8366004610cdc565b61034c565b005b6101bd6101cd366004610cdc565b610377565b600554610161906001600160a01b031681565b61019c7f59a1c48e5837ad7a7f3dcedcbe129bf3249ec4fbf651fd4f5e2600ead39fe2f581565b600154610161906001600160a01b031681565b6101bd61022d366004610d0c565b6103af565b610161610240366004610cae565b6003602052600090815260409020546001600160a01b031681565b610139610269366004610cdc565b610673565b6101bd61027c366004610d0c565b61069c565b61019c600081565b6101bd610297366004610d44565b61085f565b6101bd6102aa366004610e08565b610a0f565b61019c6102bd366004610cae565b60009081526002602052604090205490565b6101bd6102dd366004610cdc565b610a65565b61019c6102f0366004610cae565b60026020526000908152604090205481565b6101bd610310366004610e08565b610a8a565b60006001600160e01b03198216637965db0b60e01b148061034657506301ffc9a760e01b6001600160e01b03198316145b92915050565b60008281526020819052604090206001015461036781610b36565b6103718383610b43565b50505050565b6001600160a01b03811633146103a05760405163334bd91960e11b815260040160405180910390fd5b6103aa8282610bd5565b505050565b600081116104045760405162461bcd60e51b815260206004820152601d60248201527f416d6f756e74206d7573742062652067726561746572207468616e203000000060448201526064015b60405180910390fd5b6004546001600160a01b0316156104bd57600480546040516331a9108f60e11b81529182018490526001600160a01b031690636352211e90602401602060405180830381865afa925050508015610478575060408051601f3d908101601f1916820190925261047591810190610e25565b60015b6104bb5760405162461bcd60e51b81526020600482015260146024820152731059d95b9d081b9bdd081c9959da5cdd195c995960621b60448201526064016103fb565b505b60008281526002602052604081205490036104f557600082815260036020526040902080546001600160a01b0319163317905561055b565b6000828152600360205260409020546001600160a01b0316331461055b5760405162461bcd60e51b815260206004820152601e60248201527f4f6e6c7920746865206167656e74206f776e65722063616e207374616b65000060448201526064016103fb565b60008281526002602052604081208054839290610579908490610e58565b90915550506001546040516323b872dd60e01b8152336004820152306024820152604481018390526001600160a01b03909116906323b872dd906064016020604051808303816000875af11580156105d5573d6000803e3d6000fd5b505050506040513d601f19601f820116820180604052508101906105f99190610e6b565b6106375760405162461bcd60e51b815260206004820152600f60248201526e151c985b9cd9995c8819985a5b1959608a1b60448201526064016103fb565b604051818152339083907f18dcd430020e4d4899772fd94a8b40451dc5044dfb70bc46b532eeae431c864f906020015b60405180910390a35050565b6000918252602082815260408084206001600160a01b0393909316845291905290205460ff1690565b6000828152600360205260409020546001600160a01b031633146107025760405162461bcd60e51b815260206004820181905260248201527f4f6e6c7920746865206167656e74206f776e65722063616e20756e7374616b6560448201526064016103fb565b6000828152600260205260409020548111156107555760405162461bcd60e51b8152602060048201526012602482015271496e73756666696369656e74207374616b6560701b60448201526064016103fb565b60008281526002602052604081208054839290610773908490610e8d565b909155505060015460405163a9059cbb60e01b8152336004820152602481018390526001600160a01b039091169063a9059cbb906044016020604051808303816000875af11580156107c9573d6000803e3d6000fd5b505050506040513d601f19601f820116820180604052508101906107ed9190610e6b565b61082b5760405162461bcd60e51b815260206004820152600f60248201526e151c985b9cd9995c8819985a5b1959608a1b60448201526064016103fb565b604051818152339083907f37375b03d8924bd8f076f11f8411b9962aa5c02fb489021507bc6bb6f850e36590602001610667565b7f59a1c48e5837ad7a7f3dcedcbe129bf3249ec4fbf651fd4f5e2600ead39fe2f561088981610b36565b6000848152600260205260409020548311156108e75760405162461bcd60e51b815260206004820152601b60248201527f496e73756666696369656e74207374616b6520746f20736c617368000000000060448201526064016103fb565b60008481526002602052604081208054859290610905908490610e8d565b909155505060015460055460405163a9059cbb60e01b81526001600160a01b0391821660048201526024810186905291169063a9059cbb906044016020604051808303816000875af115801561095f573d6000803e3d6000fd5b505050506040513d601f19601f820116820180604052508101906109839190610e6b565b6109cf5760405162461bcd60e51b815260206004820152601b60248201527f5472616e7366657220746f207472656173757279206661696c6564000000000060448201526064016103fb565b837f4e965df81adf3e7542b463ce357b6c861e8dc7a0e939896801872101e25e4a1c8484604051610a01929190610ea0565b60405180910390a250505050565b6000610a1a81610b36565b600480546001600160a01b0319166001600160a01b0384169081179091556040517f4462ba50fcfa33455e489aea1f3b660d53614c6283f422609f65a2e91f9a1e6590600090a25050565b600082815260208190526040902060010154610a8081610b36565b6103718383610bd5565b6000610a9581610b36565b6001600160a01b038216610aeb5760405162461bcd60e51b815260206004820152601860248201527f496e76616c69642074726561737572792061646472657373000000000000000060448201526064016103fb565b600580546001600160a01b0319166001600160a01b0384169081179091556040517f7dae230f18360d76a040c81f050aa14eb9d6dc7901b20fc5d855e2a20fe814d190600090a25050565b610b408133610c40565b50565b6000610b4f8383610673565b610bcd576000838152602081815260408083206001600160a01b03861684529091529020805460ff19166001179055610b853390565b6001600160a01b0316826001600160a01b0316847f2f8788117e7eff1d82e926ec794901d17c78024a50270940304540a733656f0d60405160405180910390a4506001610346565b506000610346565b6000610be18383610673565b15610bcd576000838152602081815260408083206001600160a01b0386168085529252808320805460ff1916905551339286917ff6391f5c32d9c69d2a47ea670b442974b53935d1edc7fd64eb21e047a839171b9190a4506001610346565b610c4a8282610673565b610c795760405163e2517d3f60e01b81526001600160a01b0382166004820152602481018390526044016103fb565b5050565b600060208284031215610c8f57600080fd5b81356001600160e01b031981168114610ca757600080fd5b9392505050565b600060208284031215610cc057600080fd5b5035919050565b6001600160a01b0381168114610b4057600080fd5b60008060408385031215610cef57600080fd5b823591506020830135610d0181610cc7565b809150509250929050565b60008060408385031215610d1f57600080fd5b50508035926020909101359150565b634e487b7160e01b600052604160045260246000fd5b600080600060608486031215610d5957600080fd5b8335925060208401359150604084013567ffffffffffffffff80821115610d7f57600080fd5b818601915086601f830112610d9357600080fd5b813581811115610da557610da5610d2e565b604051601f8201601f19908116603f01168101908382118183101715610dcd57610dcd610d2e565b81604052828152896020848701011115610de657600080fd5b8260208601602083013760006020848301015280955050505050509250925092565b600060208284031215610e1a57600080fd5b8135610ca781610cc7565b600060208284031215610e3757600080fd5b8151610ca781610cc7565b634e487b7160e01b600052601160045260246000fd5b8082018082111561034657610346610e42565b600060208284031215610e7d57600080fd5b81518015158114610ca757600080fd5b8181038181111561034657610346610e42565b82815260006020604081840152835180604085015260005b81811015610ed457858101830151858201606001528201610eb8565b506000606082860101526060601f19601f83011685010192505050939250505056fea2646970667358221220f1384eb02dc11f5d70ac6720be01b157c93d6fa42d8c3c4d22b7242676daefa264736f6c63430008140033",
  "devdoc": {
    "errors": {
      "AccessControlBadConfirmation()": [
        {
          "details": "The caller of a function is not the expected one. NOTE: Don't confuse with {AccessControlUnauthorizedAccount}."
        }
      ],
      "AccessControlUnauthorizedAccount(address,bytes32)": [
        {
          "details": "The `account` is missing a role."
        }
      ]
    },
    "events": {
      "RoleAdminChanged(bytes32,bytes32,bytes32)": {
        "details": "Emitted when `newAdminRole` is set as ``role``'s admin role, replacing `previousAdminRole` `DEFAULT_ADMIN_ROLE` is the starting admin for all roles, despite {RoleAdminChanged} not being emitted signaling this."
      },
      "RoleGranted(bytes32,address,address)": {
        "details": "Emitted when `account` is granted `role`. `sender` is the account that originated the contract call, an admin role bearer except when using {AccessControl-_setupRole}."
      },
      "RoleRevoked(bytes32,address,address)": {
        "details": "Emitted when `account` is revoked `role`. `sender` is the account that originated the contract call:   - if using `revokeRole`, it is the admin role bearer   - if using `renounceRole`, it is the role bearer (i.e. `account`)"
      }
    },
    "kind": "dev",
    "methods": {
      "getRoleAdmin(bytes32)": {
        "details": "Returns the admin role that controls `role`. See {grantRole} and {revokeRole}. To change a role's admin, use {_setRoleAdmin}."
      },
      "getStake(uint256)": {
        "params": {
          "_agentId": "The ID of the agent."
        },
        "returns": {
          "_0": "The current staked amount."
        }
      },
      "grantRole(bytes32,address)": {
        "details": "Grants `role` to `account`. If `account` had not been already granted `role`, emits a {RoleGranted} event. Requirements: - the caller must have ``role``'s admin role. May emit a {RoleGranted} event."
      },
      "hasRole(bytes32,address)": {
        "details": "Returns `true` if `account` has been granted `role`."
      },
      "renounceRole(bytes32,address)": {
        "details": "Revokes `role` from the calling account. Roles are often managed via {grantRole} and {revokeRole}: this function's purpose is to provide a mechanism for accounts to lose their privileges if they are compromised (such as when a trusted device is misplaced). If the calling account had been revoked `role`, emits a {RoleRevoked} event. Requirements: - the caller must be `callerConfirmation`. May emit a {RoleRevoked} event."
      },
      "revokeRole(bytes32,address)": {
        "details": "Revokes `role` from `account`. If `account` had been granted `role`, emits a {RoleRevoked} event. Requirements: - the caller must have ``role``'s admin role. May emit a {RoleRevoked} event."
      },
      "setIdentityRegistry(address)": {
        "details": "Only callable by the admin.",
        "params": {
          "_identityRegistry": "The address of the Identity Registry."
        }
      },
      "setTreasury(address)": {
        "details": "Only callable by the admin.",
        "params": {
          "_treasury": "The new treasury address."
        }
      },
      "slash(uint256,uint256,string)": {
        "details": "Only callable by accounts with AUDITOR_ROLE.",
        "params": {
          "_agentId": "The ID of the agent to slash.",
          "_amount": "The amount of tokens to slash.",
          "_reason": "The reason for slashing."
        }
      },
      "stake(uint256,uint256)": {
        "params": {
          "_agentId": "The ID of the agent to stake for.",
          "_amount": "The amount of tokens to stake."
        }
      },
      "supportsInterface(bytes4)": {
        "details": "See {IERC165-supportsInterface}."
      },
      "unstake(uint256,uint256)": {
        "params": {
          "_agentId": "The ID of the agent to unstake from.",
          "_amount": "The amount of tokens to unstake."
        }
      }
    },
    "title": "AgentStaking",
    "version": 1
  },
  "userdoc": {
    "kind": "user",
    "methods": {
      "getStake(uint256)": {
        "notice": "Gets the current stake for an agent."
      },
      "setIdentityRegistry(address)": {
        "notice": "Sets the ERC-8004 Identity Registry address."
      },
      "setTreasury(address)": {
        "notice": "Sets the treasury address for slashed funds."
      },
      "slash(uint256,uint256,string)": {
        "notice": "Slashes an agent's stake."
      },
      "stake(uint256,uint256)": {
        "notice": "Stakes tokens for a specific agent."
      },
      "unstake(uint256,uint256)": {
        "notice": "Unstakes tokens for a specific agent."
      }
    },
    "notice": "Manages staking and slashing for AI agents.",
    "version": 1
  },
  "storageLayout": {
    "storage": [
      {
        "astId": 26,
        "contract": "contracts/AgentStaking.sol:AgentStaking",
        "label": "_roles",
        "offset": 0,
        "slot": "0",
        "type": "t_mapping(t_bytes32,t_struct(RoleData)21_storage)"
      },
      {
        "astId": 655,
        "contract": "contracts/AgentStaking.sol:AgentStaking",
        "label": "stakingToken",
        "offset": 0,
        "slot": "1",
        "type": "t_contract(IERC20)456"
      },
      {
        "astId": 659,
        "contract": "contracts/AgentStaking.sol:AgentStaking",
        "label": "stakes",
        "offset": 0,
        "slot": "2",
        "type": "t_mapping(t_uint256,t_uint256)"
      },
      {
        "astId": 663,
        "contract": "contracts/AgentStaking.sol:AgentStaking",
        "label": "agentOwners",
        "offset": 0,
        "slot": "3",
        "type": "t_mapping(t_uint256,t_address)"
      },
      {
        "astId": 665,
        "contract": "contracts/AgentStaking.sol:AgentStaking",
        "label": "identityRegistry",
        "offset": 0,
        "slot": "4",
        "type": "t_address"
      },
      {
        "astId": 667,
        "contract": "contracts/AgentStaking.sol:AgentStaking",
        "label": "treasury",
        "offset": 0,
        "slot": "5",
        "type": "t_address"
      }
    ],
    "types": {
      "t_address": {
        "encoding": "inplace",
        "label": "address",
        "numberOfBytes": "20"
      },
      "t_bool": {
        "encoding": "inplace",
        "label": "bool",
        "numberOfBytes": "1"
      },
      "t_bytes32": {
        "encoding": "inplace",
        "label": "bytes32",
        "numberOfBytes": "32"
      },
      "t_contract(IERC20)456": {
        "encoding": "inplace",
        "label": "contract IERC20",
        "numberOfBytes": "20"
      },
      "t_mapping(t_address,t_bool)": {
        "encoding": "mapping",
        "key": "t_address",
        "label": "mapping(address => bool)",
        "numberOfBytes": "32",
        "value": "t_bool"
      },
      "t_mapping(t_bytes32,t_struct(RoleData)21_storage)": {
        "encoding": "mapping",
        "key": "t_bytes32",
        "label": "mapping(bytes32 => struct AccessControl.RoleData)",
        "numberOfBytes": "32",
        "value": "t_struct(RoleData)21_storage"
      },
      "t_mapping(t_uint256,t_address)": {
        "encoding": "mapping",
        "key": "t_uint256",
        "label": "mapping(uint256 => address)",
        "numberOfBytes": "32",
        "value": "t_address"
      },
      "t_mapping(t_uint256,t_uint256)": {
        "encoding": "mapping",
        "key": "t_uint256",
        "label": "mapping(uint256 => uint256)",
        "numberOfBytes": "32",
        "value": "t_uint256"
      },
      "t_struct(RoleData)21_storage": {
        "encoding": "inplace",
        "label": "struct AccessControl.RoleData",
        "members": [
          {
            "astId": 18,
            "contract": "contracts/AgentStaking.sol:AgentStaking",
            "label": "hasRole",
            "offset": 0,
            "slot": "0",
            "type": "t_mapping(t_address,t_bool)"
          },
          {
            "astId": 20,
            "contract": "contracts/AgentStaking.sol:AgentStaking",
            "label": "adminRole",
            "offset": 0,
            "slot": "1",
            "type": "t_bytes32"
          }
        ],
        "numberOfBytes": "64"
      },
      "t_uint256": {
        "encoding": "inplace",
        "label": "uint256",
        "numberOfBytes": "32"
      }
    }
  }
}