{
  "address": "0x45b20c0D519312eF20dD7EB318be2e457DA964CE",
  "abi": [
    {
      "inputs": [],
      "stateMutability": "nonpayable",
      "type": "constructor"
    },
    {
      "inputs": [],
      "name": "AccessControlBadConfirmation",
      "type": "error"
    },
    {
      "inputs": [
        {
          "internalType": "address",
          "name": "account",
          "type": "address"
        },
        {
          "internalType": "bytes32",
          "name": "neededRole",
          "type": "bytes32"
        }
      ],
      "name": "AccessControlUnauthorizedAccount",
      "type": "error"
    },
    {
      "anonymous": false,
      "inputs": [
        {
          "indexed": true,
          "internalType": "address",
          "name": "newAgentStaking",
          "type": "address"
        }
      ],
      "name": "AgentStakingUpdated",
      "type": "event"
    },
    {
      "anonymous": false,
      "inputs": [
        {
          "indexed": true,
          "internalType": "string",
          "name": "contentHash",
          "type": "string"
        },
        {
          "indexed": false,
          "internalType": "bool",
          "name": "ok",
          "type": "bool"
        },
        {
          "indexed": false,
          "internalType": "uint256",
          "name": "score",
          "type": "uint256"
        }
      ],
      "name": "ContentAudited",
      "type": "event"
    },
    {
      "anonymous": false,
      "inputs": [
        {
          "indexed": false,
          "internalType": "string",
          "name": "contentHash",
          "type": "string"
        },
        {
          "indexed": true,
          "internalType": "address",
          "name": "author",
          "type": "address"
        },
        {
          "indexed": true,
          "internalType": "uint256",
          "name": "agentId",
          "type": "uint256"
        },
        {
          "indexed": false,
          "internalType": "string",
          "name": "uri",
          "type": "string"
        }
      ],
      "name": "ContentPublished",
      "type": "event"
    },
    {
      "anonymous": false,
      "inputs": [
        {
          "indexed": true,
          "internalType": "bytes32",
          "name": "role",
          "type": "bytes32"
        },
        {
          "indexed": true,
          "internalType": "bytes32",
          "name": "previousAdminRole",
          "type": "bytes32"
        },
        {
          "indexed": true,
          "internalType": "bytes32",
          "name": "newAdminRole",
          "type": "bytes32"
        }
      ],
      "name": "RoleAdminChanged",
      "type": "event"
    },
    {
      "anonymous": false,
      "inputs": [
        {
          "indexed": true,
          "internalType": "bytes32",
          "name": "role",
          "type": "bytes32"
        },
        {
          "indexed": true,
          "internalType": "address",
          "name": "account",
          "type": "address"
        },
        {
          "indexed": true,
          "internalType": "address",
          "name": "sender",
          "type": "address"
        }
      ],
      "name": "RoleGranted",
      "type": "event"
    },
    {
      "anonymous": false,
      "inputs": [
        {
          "indexed": true,
          "internalType": "bytes32",
          "name": "role",
          "type": "bytes32"
        },
        {
          "indexed": true,
          "internalType": "address",
          "name": "account",
          "type": "address"
        },
        {
          "indexed": true,
          "internalType": "address",
          "name": "sender",
          "type": "address"
        }
      ],
      "name": "RoleRevoked",
      "type": "event"
    },
    {
      "anonymous": false,
      "inputs": [
        {
          "indexed": true,
          "internalType": "address",
          "name": "newTrustScoreRegistry",
          "type": "address"
        }
      ],
      "name": "TrustScoreRegistryUpdated",
      "type": "event"
    },
    {
      "inputs": [],
      "name": "AUDITOR_ROLE",
      "outputs": [
        {
          "internalType": "bytes32",
          "name": "",
          "type": "bytes32"
        }
      ],
      "stateMutability": "view",
      "type": "function"
    },
    {
      "inputs": [],
      "name": "BAD_FAIL_BPS",
      "outputs": [
        {
          "internalType": "uint16",
          "name": "",
          "type": "uint16"
        }
      ],
      "stateMutability": "view",
      "type": "function"
    },
    {
      "inputs": [],
      "name": "BAD_FAIL_THRESHOLD",
      "outputs": [
        {
          "internalType": "uint8",
          "name": "",
          "type": "uint8"
        }
      ],
      "stateMutability": "view",
      "type": "function"
    },
    {
      "inputs": [],
      "name": "BPS_DENOMINATOR",
      "outputs": [
        {
          "internalType": "uint16",
          "name": "",
          "type": "uint16"
        }
      ],
      "stateMutability": "view",
      "type": "function"
    },
    {
      "inputs": [],
      "name": "CRITICAL_FAIL_BPS",
      "outputs": [
        {
          "internalType": "uint16",
          "name": "",
          "type": "uint16"
        }
      ],
      "stateMutability": "view",
      "type": "function"
    },
    {
      "inputs": [],
      "name": "DEFAULT_ADMIN_ROLE",
      "outputs": [
        {
          "internalType": "bytes32",
          "name": "",
          "type": "bytes32"
        }
      ],
      "stateMutability": "view",
      "type": "function"
    },
    {
      "inputs": [],
      "name": "MILD_FAIL_BPS",
      "outputs": [
        {
          "internalType": "uint16",
          "name": "",
          "type": "uint16"
        }
      ],
      "stateMutability": "view",
      "type": "function"
    },
    {
      "inputs": [],
      "name": "MILD_FAIL_THRESHOLD",
      "outputs": [
        {
          "internalType": "uint8",
          "name": "",
          "type": "uint8"
        }
      ],
      "stateMutability": "view",
      "type": "function"
    },
    {
      "inputs": [],
      "name": "PASS_THRESHOLD",
      "outputs": [
        {
          "internalType": "uint8",
          "name": "",
          "type": "uint8"
        }
      ],
      "stateMutability": "view",
      "type": "function"
    },
    {
      "inputs": [],
      "name": "agentStaking",
      "outputs": [
        {
          "internalType": "contract IAgentStaking",
          "name": "",
          "type": "address"
        }
      ],
      "stateMutability": "view",
      "type": "function"
    },
    {
      "inputs": [
        {
          "internalType": "string",
          "name": "",
          "type": "string"
        }
      ],
      "name": "contents",
      "outputs": [
        {
          "internalType": "string",
          "name": "contentHash",
          "type": "string"
        },
        {
          "internalType": "address",
          "name": "author",
          "type": "address"
        },
        {
          "internalType": "uint256",
          "name": "agentId",
          "type": "uint256"
        },
        {
          "internalType": "enum ContentRegistry.Status",
          "name": "status",
          "type": "uint8"
        },
        {
          "internalType": "uint256",
          "name": "auditScore",
          "type": "uint256"
        },
        {
          "internalType": "string",
          "name": "uri",
          "type": "string"
        },
        {
          "internalType": "uint256",
          "name": "timestamp",
          "type": "uint256"
        }
      ],
      "stateMutability": "view",
      "type": "function"
    },
    {
      "inputs": [
        {
          "internalType": "bytes32",
          "name": "role",
          "type": "bytes32"
        }
      ],
      "name": "getRoleAdmin",
      "outputs": [
        {
          "internalType": "bytes32",
          "name": "",
          "type": "bytes32"
        }
      ],
      "stateMutability": "view",
      "type": "function"
    },
    {
      "inputs": [
        {
          "internalType": "bytes32",
          "name": "role",
          "type": "bytes32"
        },
        {
          "internalType": "address",
          "name": "account",
          "type": "address"
        }
      ],
      "name": "grantRole",
      "outputs": [],
      "stateMutability": "nonpayable",
      "type": "function"
    },
    {
      "inputs": [
        {
          "internalType": "bytes32",
          "name": "role",
          "type": "bytes32"
        },
        {
          "internalType": "address",
          "name": "account",
          "type": "address"
        }
      ],
      "name": "hasRole",
      "outputs": [
        {
          "internalType": "bool",
          "name": "",
          "type": "bool"
        }
      ],
      "stateMutability": "view",
      "type": "function"
    },
    {
      "inputs": [
        {
          "internalType": "string",
          "name": "_contentHash",
          "type": "string"
        },
        {
          "internalType": "address",
          "name": "_author",
          "type": "address"
        },
        {
          "internalType": "uint256",
          "name": "_agentId",
          "type": "uint256"
        },
        {
          "internalType": "string",
          "name": "_uri",
          "type": "string"
        }
      ],
      "name": "publishContent",
      "outputs": [],
      "stateMutability": "nonpayable",
      "type": "function"
    },
    {
      "inputs": [
        {
          "internalType": "bytes32",
          "name": "role",
          "type": "bytes32"
        },
        {
          "internalType": "address",
          "name": "callerConfirmation",
          "type": "address"
        }
      ],
      "name": "renounceRole",
      "outputs": [],
      "stateMutability": "nonpayable",
      "type": "function"
    },
    {
      "inputs": [
        {
          "internalType": "bytes32",
          "name": "role",
          "type": "bytes32"
        },
        {
          "internalType": "address",
          "name": "account",
          "type": "address"
        }
      ],
      "name": "revokeRole",
      "outputs": [],
      "stateMutability": "nonpayable",
      "type": "function"
    },
    {
      "inputs": [
        {
          "internalType": "address",
          "name": "_agentStaking",
          "type": "address"
        }
      ],
      "name": "setAgentStaking",
      "outputs": [],
      "stateMutability": "nonpayable",
      "type": "function"
    },
    {
      "inputs": [
        {
          "internalType": "address",
          "name": "_trustScoreRegistry",
          "type": "address"
        }
      ],
      "name": "setTrustScoreRegistry",
      "outputs": [],
      "stateMutability": "nonpayable",
      "type": "function"
    },
    {
      "inputs": [
        {
          "internalType": "bytes4",
          "name": "interfaceId",
          "type": "bytes4"
        }
      ],
      "name": "supportsInterface",
      "outputs": [
        {
          "internalType": "bool",
          "name": "",
          "type": "bool"
        }
      ],
      "stateMutability": "view",
      "type": "function"
    },
    {
      "inputs": [],
      "name": "trustScoreRegistry",
      "outputs": [
        {
          "internalType": "contract TrustScoreRegistry",
          "name": "",
          "type": "address"
        }
      ],
      "stateMutability": "view",
      "type": "function"
    },
    {
      "inputs": [
        {
          "internalType": "string",
          "name": "_contentHash",
          "type": "string"
        },
        {
          "internalType": "bool",
          "name": "_ok",
          "type": "bool"
        },
        {
          "internalType": "uint256",
          "name": "_score",
          "type": "uint256"
        }
      ],
      "name": "updateAuditResult",
      "outputs": [],
      "stateMutability": "nonpayable",
      "type": "function"
    }
  ],
  "transactionHash": "0xd14407d9dff36fa01d8d0456ceffb7026076586011058d4cc3be99c44a8eec41",
  "args": [],
  "numDeployments": 1,
  "solcInputHash": "2a7d58b8ec6b5482c1b369e2362a5ffd",
  "bytecode": "0x608060405234801561001057600080fd5b5061001c600033610022565b506100ce565b6000828152602081815260408083206001600160a01b038516845290915281205460ff166100c4576000838152602081815260408083206001600160a01b03861684529091529020805460ff1916600117905561007c3390565b6001600160a01b0316826001600160a01b0316847f2f8788117e7eff1d82e926ec794901d17c78024a50270940304540a733656f0d60405160405180910390a45060016100c8565b5060005b92915050565b611509806100dd6000396000f3fe608060405234801561001057600080fd5b50600436106101425760003560e01c8063a217fddf116100b8578063c01dc4cc1161007c578063c01dc4cc146102d1578063c335444f146102e4578063cd177dc3146102f7578063d547741f1461030a578063e1a452181461031d578063fd92a6da1461032657600080fd5b8063a217fddf1461027f578063a67072b614610287578063a6acce351461028f578063aeca87fc146102b5578063b27bd990146102c857600080fd5b806333f78d591161010a57806333f78d59146101fc57806336568abe146102165780636e1d616e146102295780638350184514610250578063856d1f3f1461026357806391d148541461026c57600080fd5b806301ffc9a714610147578063039ac81e1461016f5780631ded38a31461018b578063248a9ca3146101b65780632f2ff15d146101e7575b600080fd5b61015a610155366004610ed0565b61032e565b60405190151581526020015b60405180910390f35b610178610bb881565b60405161ffff9091168152602001610166565b60025461019e906001600160a01b031681565b6040516001600160a01b039091168152602001610166565b6101d96101c4366004610f01565b60009081526020819052604090206001015490565b604051908152602001610166565b6101fa6101f5366004610f36565b610365565b005b610204603381565b60405160ff9091168152602001610166565b6101fa610224366004610f36565b610390565b6101d97f59a1c48e5837ad7a7f3dcedcbe129bf3249ec4fbf651fd4f5e2600ead39fe2f581565b60015461019e906001600160a01b031681565b6101786105dc81565b61015a61027a366004610f36565b6103c8565b6101d9600081565b610204601581565b6102a261029d366004611005565b6103f1565b60405161016697969594939291906110a8565b6101fa6102c3366004611122565b610559565b6101786101f481565b6101fa6102df366004611122565b6105af565b6101fa6102f236600461113d565b610605565b6101fa6103053660046111bb565b6107b3565b6101fa610318366004610f36565b6109ab565b61017861271081565b610204600181565b60006001600160e01b03198216637965db0b60e01b148061035f57506301ffc9a760e01b6001600160e01b03198316145b92915050565b600082815260208190526040902060010154610380816109d0565b61038a83836109dd565b50505050565b6001600160a01b03811633146103b95760405163334bd91960e11b815260040160405180910390fd5b6103c38282610a6f565b505050565b6000918252602082815260408084206001600160a01b0393909316845291905290205460ff1690565b80516020818301810180516003825292820191909301209152805481906104179061121a565b80601f01602080910402602001604051908101604052809291908181526020018280546104439061121a565b80156104905780601f1061046557610100808354040283529160200191610490565b820191906000526020600020905b81548152906001019060200180831161047357829003601f168201915b505050600184015460028501546003860154600487015460058801805497986001600160a01b039095169793965060ff909216945092916104d09061121a565b80601f01602080910402602001604051908101604052809291908181526020018280546104fc9061121a565b80156105495780601f1061051e57610100808354040283529160200191610549565b820191906000526020600020905b81548152906001019060200180831161052c57829003601f168201915b5050505050908060060154905087565b6000610564816109d0565b600180546001600160a01b0319166001600160a01b0384169081179091556040517fd50f6e6e4e61da597a96528e9baa0620e7bba4c81372034f74ec5aae8761d16a90600090a25050565b60006105ba816109d0565b600280546001600160a01b0319166001600160a01b0384169081179091556040517f793ead86df57bea85fb76aee58d064fa0b3b49ac23442799a262e181842f56d890600090a25050565b6003846040516106159190611254565b9081526020016040518091039020600601546000146106745760405162461bcd60e51b8152602060048201526016602482015275436f6e74656e7420616c72656164792065786973747360501b60448201526064015b60405180910390fd5b6040805160e0810182528581526001600160a01b0385166020820152908101839052606081016000815260200160008152602001828152602001428152506003856040516106c29190611254565b908152604051908190036020019020815181906106df90826112be565b506020820151600182810180546001600160a01b0319166001600160a01b0390931692909217909155604083015160028301556060830151600380840180549293909260ff191691849081111561073857610738611092565b02179055506080820151600482015560a0820151600582019061075b90826112be565b5060c0820151816006015590505081836001600160a01b03167ff5eec2808ed31acc3ced64f7bba5a5f7305400f52703109e6a4e0d9003c9d18d86846040516107a592919061137e565b60405180910390a350505050565b7f59a1c48e5837ad7a7f3dcedcbe129bf3249ec4fbf651fd4f5e2600ead39fe2f56107dd816109d0565b6003846040516107ed9190611254565b9081526020016040518091039020600601546000036108475760405162461bcd60e51b815260206004820152601660248201527510dbdb9d195b9d08191bd95cc81b9bdd08195e1a5cdd60521b604482015260640161066b565b60648211156108985760405162461bcd60e51b815260206004820152601f60248201527f53636f7265206d757374206265206265747765656e203020616e642031303000604482015260640161066b565b60006003856040516108aa9190611254565b90815260200160405180910390209050836108c65760036108c9565b60025b8160030160006101000a81548160ff021916908360038111156108ee576108ee611092565b0217905550600481018390556002546001600160a01b0316156109295760018101546002820154610929916001600160a01b03169085610ada565b8315801561094157506001546001600160a01b031615155b1561095457610954816002015484610be9565b846040516109629190611254565b60408051918290038220861515835260208301869052917f6173240a0b49c2f7e91797f1df569d90492ef22cb7a5a3b9e22e7dcf80f42343910160405180910390a25050505050565b6000828152602081905260409020600101546109c6816109d0565b61038a8383610a6f565b6109da8133610d67565b50565b60006109e983836103c8565b610a67576000838152602081815260408083206001600160a01b03861684529091529020805460ff19166001179055610a1f3390565b6001600160a01b0316826001600160a01b0316847f2f8788117e7eff1d82e926ec794901d17c78024a50270940304540a733656f0d60405160405180910390a450600161035f565b50600061035f565b6000610a7b83836103c8565b15610a67576000838152602081815260408083206001600160a01b0386168085529252808320805460ff1916905551339286917ff6391f5c32d9c69d2a47ea670b442974b53935d1edc7fd64eb21e047a839171b9190a450600161035f565b600080603360ff841610610af45750600190506002610b17565b601560ff841610610b0d57506000199050600119610b17565b5060011990506003195b6002546040516316d1eaf360e01b81526001600160a01b03878116600483015260248201859052909116906316d1eaf390604401600060405180830381600087803b158015610b6557600080fd5b505af1158015610b79573d6000803e3d6000fd5b50506002546040516341d45eb160e11b815260048101889052602481018590526001600160a01b0390911692506383a8bd629150604401600060405180830381600087803b158015610bca57600080fd5b505af1158015610bde573d6000803e3d6000fd5b505050505050505050565b6001546040516319c64b7f60e31b8152600481018490526000916001600160a01b03169063ce325bf890602401602060405180830381865afa158015610c33573d6000803e3d6000fd5b505050506040513d601f19601f82011682018060405250810190610c5791906113ac565b905080600003610c6657505050565b6000603360ff841610610c795750505050565b601560ff841610610c8d57506101f4610ca6565b600160ff841610610ca157506105dc610ca6565b50610bb85b6000612710610cb961ffff8416856113db565b610cc391906113f2565b90508015610d60576000610cd98560ff16610da4565b604051602001610ce99190611414565b60408051601f198184030181529082905260015463b759e83760e01b83529092506001600160a01b03169063b759e83790610d2c90899086908690600401611459565b600060405180830381600087803b158015610d4657600080fd5b505af1158015610d5a573d6000803e3d6000fd5b50505050505b5050505050565b610d7182826103c8565b610da05760405163e2517d3f60e01b81526001600160a01b03821660048201526024810183905260440161066b565b5050565b606081600003610dcb5750506040805180820190915260018152600360fc1b602082015290565b8160005b8115610df55780610ddf81611478565b9150610dee9050600a836113f2565b9150610dcf565b60008167ffffffffffffffff811115610e1057610e10610f62565b6040519080825280601f01601f191660200182016040528015610e3a576020820181803683370190505b509050815b8515610ec757610e50600182611491565b90506000610e5f600a886113f2565b610e6a90600a6113db565b610e749088611491565b610e7f9060306114a4565b905060008160f81b905080848481518110610e9c57610e9c6114bd565b60200101906001600160f81b031916908160001a905350610ebe600a896113f2565b97505050610e3f565b50949350505050565b600060208284031215610ee257600080fd5b81356001600160e01b031981168114610efa57600080fd5b9392505050565b600060208284031215610f1357600080fd5b5035919050565b80356001600160a01b0381168114610f3157600080fd5b919050565b60008060408385031215610f4957600080fd5b82359150610f5960208401610f1a565b90509250929050565b634e487b7160e01b600052604160045260246000fd5b600082601f830112610f8957600080fd5b813567ffffffffffffffff80821115610fa457610fa4610f62565b604051601f8301601f19908116603f01168101908282118183101715610fcc57610fcc610f62565b81604052838152866020858801011115610fe557600080fd5b836020870160208301376000602085830101528094505050505092915050565b60006020828403121561101757600080fd5b813567ffffffffffffffff81111561102e57600080fd5b61103a84828501610f78565b949350505050565b60005b8381101561105d578181015183820152602001611045565b50506000910152565b6000815180845261107e816020860160208601611042565b601f01601f19169290920160200192915050565b634e487b7160e01b600052602160045260246000fd5b60e0815260006110bb60e083018a611066565b6001600160a01b038916602084015260408301889052600487106110ef57634e487b7160e01b600052602160045260246000fd5b86606084015285608084015282810360a084015261110d8186611066565b9150508260c083015298975050505050505050565b60006020828403121561113457600080fd5b610efa82610f1a565b6000806000806080858703121561115357600080fd5b843567ffffffffffffffff8082111561116b57600080fd5b61117788838901610f78565b955061118560208801610f1a565b94506040870135935060608701359150808211156111a257600080fd5b506111af87828801610f78565b91505092959194509250565b6000806000606084860312156111d057600080fd5b833567ffffffffffffffff8111156111e757600080fd5b6111f386828701610f78565b9350506020840135801515811461120957600080fd5b929592945050506040919091013590565b600181811c9082168061122e57607f821691505b60208210810361124e57634e487b7160e01b600052602260045260246000fd5b50919050565b60008251611266818460208701611042565b9190910192915050565b601f8211156103c357600081815260208120601f850160051c810160208610156112975750805b601f850160051c820191505b818110156112b6578281556001016112a3565b505050505050565b815167ffffffffffffffff8111156112d8576112d8610f62565b6112ec816112e6845461121a565b84611270565b602080601f83116001811461132157600084156113095750858301515b600019600386901b1c1916600185901b1785556112b6565b600085815260208120601f198616915b8281101561135057888601518255948401946001909101908401611331565b508582101561136e5787850151600019600388901b60f8161c191681555b5050505050600190811b01905550565b6040815260006113916040830185611066565b82810360208401526113a38185611066565b95945050505050565b6000602082840312156113be57600080fd5b5051919050565b634e487b7160e01b600052601160045260246000fd5b808202811582820484141761035f5761035f6113c5565b60008261140f57634e487b7160e01b600052601260045260246000fd5b500490565b7f4175646974206661696c656420776974682073636f72653a200000000000000081526000825161144c816019850160208701611042565b9190910160190192915050565b8381528260208201526060604082015260006113a36060830184611066565b60006001820161148a5761148a6113c5565b5060010190565b8181038181111561035f5761035f6113c5565b60ff818116838216019081111561035f5761035f6113c5565b634e487b7160e01b600052603260045260246000fdfea264697066735822122003b752518e9cf78f782c5b93d860a5684427c7c32815c7a08b4f7f039a1cf1bf64736f6c63430008140033",
  "devdoc": {
    "errors": {
      "AccessControlBadConfirmation()": [
        {
          "details": "The caller of a function is not the expected one. NOTE: Don't confuse with {AccessControlUnauthorizedAccount}."
        }
      ],
      "AccessControlUnauthorizedAccount(address,bytes32)": [
        {
          "details": "The `account` is missing a role."
        }
      ]
    },
    "events": {
      "RoleAdminChanged(bytes32,bytes32,bytes32)": {
        "details": "Emitted when `newAdminRole` is set as ``role``'s admin role, replacing `previousAdminRole` `DEFAULT_ADMIN_ROLE` is the starting admin for all roles, despite {RoleAdminChanged} not being emitted signaling this."
      },
      "RoleGranted(bytes32,address,address)": {
        "details": "Emitted when `account` is granted `role`. `sender` is the account that originated the contract call, an admin role bearer except when using {AccessControl-_setupRole}."
      },
      "RoleRevoked(bytes32,address,address)": {
        "details": "Emitted when `account` is revoked `role`. `sender` is the account that originated the contract call:   - if using `revokeRole`, it is the admin role bearer   - if using `renounceRole`, it is the role bearer (i.e. `account`)"
      }
    },
    "kind": "dev",
    "methods": {
      "getRoleAdmin(bytes32)": {
        "details": "Returns the admin role that controls `role`. See {grantRole} and {revokeRole}. To change a role's admin, use {_setRoleAdmin}."
      },
      "grantRole(bytes32,address)": {
        "details": "Grants `role` to `account`. If `account` had not been already granted `role`, emits a {RoleGranted} event. Requirements: - the caller must have ``role``'s admin role. May emit a {RoleGranted} event."
      },
      "hasRole(bytes32,address)": {
        "details": "Returns `true` if `account` has been granted `role`."
      },
      "publishContent(string,address,uint256,string)": {
        "params": {
          "_agentId": "The ID of the AI agent that generated the content.",
          "_author": "The address of the content author (user submitting through agent).",
          "_contentHash": "The unique hash of the content.",
          "_uri": "The location where the full content is stored."
        }
      },
      "renounceRole(bytes32,address)": {
        "details": "Revokes `role` from the calling account. Roles are often managed via {grantRole} and {revokeRole}: this function's purpose is to provide a mechanism for accounts to lose their privileges if they are compromised (such as when a trusted device is misplaced). If the calling account had been revoked `role`, emits a {RoleRevoked} event. Requirements: - the caller must be `callerConfirmation`. May emit a {RoleRevoked} event."
      },
      "revokeRole(bytes32,address)": {
        "details": "Revokes `role` from `account`. If `account` had been granted `role`, emits a {RoleRevoked} event. Requirements: - the caller must have ``role``'s admin role. May emit a {RoleRevoked} event."
      },
      "setAgentStaking(address)": {
        "details": "Only callable by admin.",
        "params": {
          "_agentStaking": "The address of the AgentStaking contract."
        }
      },
      "setTrustScoreRegistry(address)": {
        "details": "Only callable by admin.",
        "params": {
          "_trustScoreRegistry": "The address of the TrustScoreRegistry contract."
        }
      },
      "supportsInterface(bytes4)": {
        "details": "See {IERC165-supportsInterface}."
      },
      "updateAuditResult(string,bool,uint256)": {
        "details": "Only callable by accounts with AUDITOR_ROLE.",
        "params": {
          "_contentHash": "The unique hash of the content.",
          "_ok": "Whether the audit passed or failed.",
          "_score": "The numerical score (0-100)."
        }
      }
    },
    "title": "ContentRegistry",
    "version": 1
  },
  "userdoc": {
    "kind": "user",
    "methods": {
      "publishContent(string,address,uint256,string)": {
        "notice": "Publishes new content to the registry."
      },
      "setAgentStaking(address)": {
        "notice": "Sets the AgentStaking contract address."
      },
      "setTrustScoreRegistry(address)": {
        "notice": "Sets the TrustScoreRegistry contract address."
      },
      "updateAuditResult(string,bool,uint256)": {
        "notice": "Updates the audit result for a specific content."
      }
    },
    "notice": "Anchors the public history of audited content on-chain.",
    "version": 1
  },
  "storageLayout": {
    "storage": [
      {
        "astId": 26,
        "contract": "contracts/ContentRegistry.sol:ContentRegistry",
        "label": "_roles",
        "offset": 0,
        "slot": "0",
        "type": "t_mapping(t_bytes32,t_struct(RoleData)21_storage)"
      },
      {
        "astId": 497,
        "contract": "contracts/ContentRegistry.sol:ContentRegistry",
        "label": "agentStaking",
        "offset": 0,
        "slot": "1",
        "type": "t_contract(IAgentStaking)465"
      },
      {
        "astId": 500,
        "contract": "contracts/ContentRegistry.sol:ContentRegistry",
        "label": "trustScoreRegistry",
        "offset": 0,
        "slot": "2",
        "type": "t_contract(TrustScoreRegistry)1105"
      },
      {
        "astId": 526,
        "contract": "contracts/ContentRegistry.sol:ContentRegistry",
        "label": "contents",
        "offset": 0,
        "slot": "3",
        "type": "t_mapping(t_string_memory_ptr,t_struct(Content)521_storage)"
      }
    ],
    "types": {
      "t_address": {
        "encoding": "inplace",
        "label": "address",
        "numberOfBytes": "20"
      },
      "t_bool": {
        "encoding": "inplace",
        "label": "bool",
        "numberOfBytes": "1"
      },
      "t_bytes32": {
        "encoding": "inplace",
        "label": "bytes32",
        "numberOfBytes": "32"
      },
      "t_contract(IAgentStaking)465": {
        "encoding": "inplace",
        "label": "contract IAgentStaking",
        "numberOfBytes": "20"
      },
      "t_contract(TrustScoreRegistry)1105": {
        "encoding": "inplace",
        "label": "contract TrustScoreRegistry",
        "numberOfBytes": "20"
      },
      "t_enum(Status)505": {
        "encoding": "inplace",
        "label": "enum ContentRegistry.Status",
        "numberOfBytes": "1"
      },
      "t_mapping(t_address,t_bool)": {
        "encoding": "mapping",
        "key": "t_address",
        "label": "mapping(address => bool)",
        "numberOfBytes": "32",
        "value": "t_bool"
      },
      "t_mapping(t_bytes32,t_struct(RoleData)21_storage)": {
        "encoding": "mapping",
        "key": "t_bytes32",
        "label": "mapping(bytes32 => struct AccessControl.RoleData)",
        "numberOfBytes": "32",
        "value": "t_struct(RoleData)21_storage"
      },
      "t_mapping(t_string_memory_ptr,t_struct(Content)521_storage)": {
        "encoding": "mapping",
        "key": "t_string_memory_ptr",
        "label": "mapping(string => struct ContentRegistry.Content)",
        "numberOfBytes": "32",
        "value": "t_struct(Content)521_storage"
      },
      "t_string_memory_ptr": {
        "encoding": "bytes",
        "label": "string",
        "numberOfBytes": "32"
      },
      "t_string_storage": {
        "encoding": "bytes",
        "label": "string",
        "numberOfBytes": "32"
      },
      "t_struct(Content)521_storage": {
        "encoding": "inplace",
        "label": "struct ContentRegistry.Content",
        "members": [
          {
            "astId": 507,
            "contract": "contracts/ContentRegistry.sol:ContentRegistry",
            "label": "contentHash",
            "offset": 0,
            "slot": "0",
            "type": "t_string_storage"
          },
          {
            "astId": 509,
            "contract": "contracts/ContentRegistry.sol:ContentRegistry",
            "label": "author",
            "offset": 0,
            "slot": "1",
            "type": "t_address"
          },
          {
            "astId": 511,
            "contract": "contracts/ContentRegistry.sol:ContentRegistry",
            "label": "agentId",
            "offset": 0,
            "slot": "2",
            "type": "t_uint256"
          },
          {
            "astId": 514,
            "contract": "contracts/ContentRegistry.sol:ContentRegistry",
            "label": "status",
            "offset": 0,
            "slot": "3",
            "type": "t_enum(Status)505"
          },
          {
            "astId": 516,
            "contract": "contracts/ContentRegistry.sol:ContentRegistry",
            "label": "auditScore",
            "offset": 0,
            "slot": "4",
            "type": "t_uint256"
          },
          {
            "astId": 518,
            "contract": "contracts/ContentRegistry.sol:ContentRegistry",
            "label": "uri",
            "offset": 0,
            "slot": "5",
            "type": "t_string_storage"
          },
          {
            "astId": 520,
            "contract": "contracts/ContentRegistry.sol:ContentRegistry",
            "label": "timestamp",
            "offset": 0,
            "slot": "6",
            "type": "t_uint256"
          }
        ],
        "numberOfBytes": "224"
      },
      "t_struct(RoleData)21_storage": {
        "encoding": "inplace",
        "label": "struct AccessControl.RoleData",
        "members": [
          {
            "astId": 18,
            "contract": "contracts/ContentRegistry.sol:ContentRegistry",
            "label": "hasRole",
            "offset": 0,
            "slot": "0",
            "type": "t_mapping(t_address,t_bool)"
          },
          {
            "astId": 20,
            "contract": "contracts/ContentRegistry.sol:ContentRegistry",
            "label": "adminRole",
            "offset": 0,
            "slot": "1",
            "type": "t_bytes32"
          }
        ],
        "numberOfBytes": "64"
      },
      "t_uint256": {
        "encoding": "inplace",
        "label": "uint256",
        "numberOfBytes": "32"
      }
    }
  }
}