{
  "address": "0xC04D0393768391c7480aA76213519E8486b86416",
  "abi": [
    {
      "inputs": [
        {
          "internalType": "address",
          "name": "_identityRegistry",
          "type": "address"
        }
      ],
      "stateMutability": "nonpayable",
      "type": "constructor"
    },
    {
      "anonymous": false,
      "inputs": [
        {
          "indexed": true,
          "internalType": "address",
          "name": "validatorAddress",
          "type": "address"
        },
        {
          "indexed": true,
          "internalType": "uint256",
          "name": "agentId",
          "type": "uint256"
        },
        {
          "indexed": false,
          "internalType": "string",
          "name": "requestUri",
          "type": "string"
        },
        {
          "indexed": true,
          "internalType": "bytes32",
          "name": "requestHash",
          "type": "bytes32"
        }
      ],
      "name": "ValidationRequest",
      "type": "event"
    },
    {
      "anonymous": false,
      "inputs": [
        {
          "indexed": true,
          "internalType": "address",
          "name": "validatorAddress",
          "type": "address"
        },
        {
          "indexed": true,
          "internalType": "uint256",
          "name": "agentId",
          "type": "uint256"
        },
        {
          "indexed": true,
          "internalType": "bytes32",
          "name": "requestHash",
          "type": "bytes32"
        },
        {
          "indexed": false,
          "internalType": "uint8",
          "name": "response",
          "type": "uint8"
        },
        {
          "indexed": false,
          "internalType": "string",
          "name": "responseUri",
          "type": "string"
        },
        {
          "indexed": false,
          "internalType": "bytes32",
          "name": "tag",
          "type": "bytes32"
        }
      ],
      "name": "ValidationResponse",
      "type": "event"
    },
    {
      "inputs": [],
      "name": "getIdentityRegistry",
      "outputs": [
        {
          "internalType": "address",
          "name": "",
          "type": "address"
        }
      ],
      "stateMutability": "view",
      "type": "function"
    },
    {
      "inputs": [
        {
          "internalType": "bytes32",
          "name": "requestHash",
          "type": "bytes32"
        }
      ],
      "name": "getValidationStatus",
      "outputs": [
        {
          "internalType": "address",
          "name": "validatorAddress",
          "type": "address"
        },
        {
          "internalType": "uint256",
          "name": "agentId",
          "type": "uint256"
        },
        {
          "internalType": "uint8",
          "name": "response",
          "type": "uint8"
        },
        {
          "internalType": "bytes32",
          "name": "tag",
          "type": "bytes32"
        },
        {
          "internalType": "uint256",
          "name": "lastUpdate",
          "type": "uint256"
        }
      ],
      "stateMutability": "view",
      "type": "function"
    },
    {
      "inputs": [],
      "name": "identityRegistry",
      "outputs": [
        {
          "internalType": "address",
          "name": "",
          "type": "address"
        }
      ],
      "stateMutability": "view",
      "type": "function"
    },
    {
      "inputs": [
        {
          "internalType": "bytes32",
          "name": "",
          "type": "bytes32"
        }
      ],
      "name": "requests",
      "outputs": [
        {
          "internalType": "address",
          "name": "validatorAddress",
          "type": "address"
        },
        {
          "internalType": "uint256",
          "name": "agentId",
          "type": "uint256"
        },
        {
          "internalType": "string",
          "name": "requestUri",
          "type": "string"
        },
        {
          "internalType": "bytes32",
          "name": "requestHash",
          "type": "bytes32"
        }
      ],
      "stateMutability": "view",
      "type": "function"
    },
    {
      "inputs": [
        {
          "internalType": "bytes32",
          "name": "",
          "type": "bytes32"
        }
      ],
      "name": "responses",
      "outputs": [
        {
          "internalType": "uint8",
          "name": "response",
          "type": "uint8"
        },
        {
          "internalType": "string",
          "name": "responseUri",
          "type": "string"
        },
        {
          "internalType": "bytes32",
          "name": "responseHash",
          "type": "bytes32"
        },
        {
          "internalType": "bytes32",
          "name": "tag",
          "type": "bytes32"
        },
        {
          "internalType": "uint256",
          "name": "lastUpdate",
          "type": "uint256"
        }
      ],
      "stateMutability": "view",
      "type": "function"
    },
    {
      "inputs": [
        {
          "internalType": "address",
          "name": "validatorAddress",
          "type": "address"
        },
        {
          "internalType": "uint256",
          "name": "agentId",
          "type": "uint256"
        },
        {
          "internalType": "string",
          "name": "requestUri",
          "type": "string"
        },
        {
          "internalType": "bytes32",
          "name": "requestHash",
          "type": "bytes32"
        }
      ],
      "name": "validationRequest",
      "outputs": [],
      "stateMutability": "nonpayable",
      "type": "function"
    },
    {
      "inputs": [
        {
          "internalType": "bytes32",
          "name": "requestHash",
          "type": "bytes32"
        },
        {
          "internalType": "uint8",
          "name": "response",
          "type": "uint8"
        },
        {
          "internalType": "string",
          "name": "responseUri",
          "type": "string"
        },
        {
          "internalType": "bytes32",
          "name": "responseHash",
          "type": "bytes32"
        },
        {
          "internalType": "bytes32",
          "name": "tag",
          "type": "bytes32"
        }
      ],
      "name": "validationResponse",
      "outputs": [],
      "stateMutability": "nonpayable",
      "type": "function"
    }
  ],
  "transactionHash": "0x9038d4cbc38a5ae6f2559032b70dc3cf88878c24ce999e55f7e2160a85d4f559",
  "args": [
    "0xF3106a2Ff8BdBD7ba6CCb68bED46FE29FA244BC4"
  ],
  "numDeployments": 1,
  "solcInputHash": "948b2c380f4a1ba554dd082b63f0375b",
  "bytecode": "0x60a060405234801561001057600080fd5b50604051610d75380380610d7583398101604081905261002f91610040565b6001600160a01b0316608052610070565b60006020828403121561005257600080fd5b81516001600160a01b038116811461006957600080fd5b9392505050565b608051610ce461009160003960008181608701526101370152610ce46000f3fe608060405234801561001057600080fd5b506004361061007d5760003560e01c80639d8669851161005b5780639d866985146100ff578063aaf400c414610122578063bc4d861b14610135578063ff2febfc1461015b57600080fd5b8063134e18f41461008257806330e5993a146100c657806372164a6c146100db575b600080fd5b6100a97f000000000000000000000000000000000000000000000000000000000000000081565b6040516001600160a01b0390911681526020015b60405180910390f35b6100d96100d4366004610928565b6101a8565b005b6100ee6100e936600461099c565b610484565b6040516100bd9594939291906109fb565b61011261010d36600461099c565b610540565b6040516100bd9493929190610a34565b6100d9610130366004610a6c565b6105fb565b7f00000000000000000000000000000000000000000000000000000000000000006100a9565b61016e61016936600461099c565b6106f8565b604080516001600160a01b039096168652602086019490945260ff909216928401929092526060830191909152608082015260a0016100bd565b600086815260208181526040808320815160808101835281546001600160a01b0316815260018201549381019390935260028101805491928401916101ec90610adc565b80601f016020809104026020016040519081016040528092919081815260200182805461021890610adc565b80156102655780601f1061023a57610100808354040283529160200191610265565b820191906000526020600020905b81548152906001019060200180831161024857829003601f168201915b50505091835250506003919091015460209091015280519091506001600160a01b03166102cd5760405162461bcd60e51b815260206004820152601160248201527014995c5d595cdd081b9bdd08199bdd5b99607a1b60448201526064015b60405180910390fd5b80516001600160a01b031633146103265760405162461bcd60e51b815260206004820152601860248201527f4e6f7420617574686f72697a65642076616c696461746f72000000000000000060448201526064016102c4565b60648660ff1611156103735760405162461bcd60e51b81526020600482015260166024820152750526573706f6e7365206d75737420626520302d3130360541b60448201526064016102c4565b6040518060a001604052808760ff16815260200186868080601f016020809104026020016040519081016040528093929190818152602001838380828437600092018290525093855250505060208083018790526040808401879052426060909401939093528a82526001808252929091208351815460ff191660ff9091161781559083015190918201906104089082610b7b565b5060408201518160020155606082015181600301556080820151816004015590505086816020015182600001516001600160a01b03167fcc61e07d65464186112fdaddb4b11ccef1928644b11f17e2864b38b451195671898989886040516104739493929190610c64565b60405180910390a450505050505050565b60016020819052600091825260409091208054918101805460ff909316926104ab90610adc565b80601f01602080910402602001604051908101604052809291908181526020018280546104d790610adc565b80156105245780601f106104f957610100808354040283529160200191610524565b820191906000526020600020905b81548152906001019060200180831161050757829003601f168201915b5050505050908060020154908060030154908060040154905085565b6000602081905290815260409020805460018201546002830180546001600160a01b0390931693919261057290610adc565b80601f016020809104026020016040519081016040528092919081815260200182805461059e90610adc565b80156105eb5780601f106105c0576101008083540402835291602001916105eb565b820191906000526020600020905b8154815290600101906020018083116105ce57829003601f168201915b5050505050908060030154905084565b6040518060800160405280866001600160a01b0316815260200185815260200184848080601f01602080910402602001604051908101604052809392919081815260200183838082843760009201829052509385525050506020918201849052838152808252604090819020835181546001600160a01b0319166001600160a01b03909116178155918301516001830155820151600282019061069e9082610b7b565b50606082015181600301559050508084866001600160a01b03167f530436c3634a98e1e626b0898be2f1e9980cc1bd2a78c07a0aba52d0a48a505986866040516106e9929190610c92565b60405180910390a45050505050565b600081815260208181526040808320815160808101835281546001600160a01b0316815260018201549381019390935260028101805485948594859485948594919284019161074690610adc565b80601f016020809104026020016040519081016040528092919081815260200182805461077290610adc565b80156107bf5780601f10610794576101008083540402835291602001916107bf565b820191906000526020600020905b8154815290600101906020018083116107a257829003601f168201915b505050918352505060039190910154602091820152600089815260018083526040808320815160a08101909252805460ff1682529182018054959650929490939192918401919061080f90610adc565b80601f016020809104026020016040519081016040528092919081815260200182805461083b90610adc565b80156108885780601f1061085d57610100808354040283529160200191610888565b820191906000526020600020905b81548152906001019060200180831161086b57829003601f168201915b50505050508152602001600282015481526020016003820154815260200160048201548152505090508160000151826020015182600001518360600151846080015196509650965096509650505091939590929450565b60008083601f8401126108f157600080fd5b50813567ffffffffffffffff81111561090957600080fd5b60208301915083602082850101111561092157600080fd5b9250929050565b60008060008060008060a0878903121561094157600080fd5b86359550602087013560ff8116811461095957600080fd5b9450604087013567ffffffffffffffff81111561097557600080fd5b61098189828a016108df565b979a9699509760608101359660809091013595509350505050565b6000602082840312156109ae57600080fd5b5035919050565b6000815180845260005b818110156109db576020818501810151868301820152016109bf565b506000602082860101526020601f19601f83011685010191505092915050565b60ff8616815260a060208201526000610a1760a08301876109b5565b604083019590955250606081019290925260809091015292915050565b60018060a01b0385168152836020820152608060408201526000610a5b60808301856109b5565b905082606083015295945050505050565b600080600080600060808688031215610a8457600080fd5b85356001600160a01b0381168114610a9b57600080fd5b945060208601359350604086013567ffffffffffffffff811115610abe57600080fd5b610aca888289016108df565b96999598509660600135949350505050565b600181811c90821680610af057607f821691505b602082108103610b1057634e487b7160e01b600052602260045260246000fd5b50919050565b634e487b7160e01b600052604160045260246000fd5b601f821115610b7657600081815260208120601f850160051c81016020861015610b535750805b601f850160051c820191505b81811015610b7257828155600101610b5f565b5050505b505050565b815167ffffffffffffffff811115610b9557610b95610b16565b610ba981610ba38454610adc565b84610b2c565b602080601f831160018114610bde5760008415610bc65750858301515b600019600386901b1c1916600185901b178555610b72565b600085815260208120601f198616915b82811015610c0d57888601518255948401946001909101908401610bee565b5085821015610c2b5787850151600019600388901b60f8161c191681555b5050505050600190811b01905550565b81835281816020850137506000828201602090810191909152601f909101601f19169091010190565b60ff85168152606060208201526000610c81606083018587610c3b565b905082604083015295945050505050565b602081526000610ca6602083018486610c3b565b94935050505056fea26469706673582212203fc7fd72286b9369fbd2338736eb1328cd67cb220470afe75140cc0e34dd290064736f6c63430008140033",
  "devdoc": {
    "kind": "dev",
    "methods": {},
    "title": "ValidationRegistry",
    "version": 1
  },
  "userdoc": {
    "kind": "user",
    "methods": {},
    "notice": "Implementation of the ERC-8004 Validation Registry.",
    "version": 1
  },
  "storageLayout": {
    "storage": [
      {
        "astId": 4186,
        "contract": "contracts/ValidationRegistry.sol:ValidationRegistry",
        "label": "requests",
        "offset": 0,
        "slot": "0",
        "type": "t_mapping(t_bytes32,t_struct(ValidationRequestData)4170_storage)"
      },
      {
        "astId": 4191,
        "contract": "contracts/ValidationRegistry.sol:ValidationRegistry",
        "label": "responses",
        "offset": 0,
        "slot": "1",
        "type": "t_mapping(t_bytes32,t_struct(ValidationResponseData)4181_storage)"
      }
    ],
    "types": {
      "t_address": {
        "encoding": "inplace",
        "label": "address",
        "numberOfBytes": "20"
      },
      "t_bytes32": {
        "encoding": "inplace",
        "label": "bytes32",
        "numberOfBytes": "32"
      },
      "t_mapping(t_bytes32,t_struct(ValidationRequestData)4170_storage)": {
        "encoding": "mapping",
        "key": "t_bytes32",
        "label": "mapping(bytes32 => struct ValidationRegistry.ValidationRequestData)",
        "numberOfBytes": "32",
        "value": "t_struct(ValidationRequestData)4170_storage"
      },
      "t_mapping(t_bytes32,t_struct(ValidationResponseData)4181_storage)": {
        "encoding": "mapping",
        "key": "t_bytes32",
        "label": "mapping(bytes32 => struct ValidationRegistry.ValidationResponseData)",
        "numberOfBytes": "32",
        "value": "t_struct(ValidationResponseData)4181_storage"
      },
      "t_string_storage": {
        "encoding": "bytes",
        "label": "string",
        "numberOfBytes": "32"
      },
      "t_struct(ValidationRequestData)4170_storage": {
        "encoding": "inplace",
        "label": "struct ValidationRegistry.ValidationRequestData",
        "members": [
          {
            "astId": 4163,
            "contract": "contracts/ValidationRegistry.sol:ValidationRegistry",
            "label": "validatorAddress",
            "offset": 0,
            "slot": "0",
            "type": "t_address"
          },
          {
            "astId": 4165,
            "contract": "contracts/ValidationRegistry.sol:ValidationRegistry",
            "label": "agentId",
            "offset": 0,
            "slot": "1",
            "type": "t_uint256"
          },
          {
            "astId": 4167,
            "contract": "contracts/ValidationRegistry.sol:ValidationRegistry",
            "label": "requestUri",
            "offset": 0,
            "slot": "2",
            "type": "t_string_storage"
          },
          {
            "astId": 4169,
            "contract": "contracts/ValidationRegistry.sol:ValidationRegistry",
            "label": "requestHash",
            "offset": 0,
            "slot": "3",
            "type": "t_bytes32"
          }
        ],
        "numberOfBytes": "128"
      },
      "t_struct(ValidationResponseData)4181_storage": {
        "encoding": "inplace",
        "label": "struct ValidationRegistry.ValidationResponseData",
        "members": [
          {
            "astId": 4172,
            "contract": "contracts/ValidationRegistry.sol:ValidationRegistry",
            "label": "response",
            "offset": 0,
            "slot": "0",
            "type": "t_uint8"
          },
          {
            "astId": 4174,
            "contract": "contracts/ValidationRegistry.sol:ValidationRegistry",
            "label": "responseUri",
            "offset": 0,
            "slot": "1",
            "type": "t_string_storage"
          },
          {
            "astId": 4176,
            "contract": "contracts/ValidationRegistry.sol:ValidationRegistry",
            "label": "responseHash",
            "offset": 0,
            "slot": "2",
            "type": "t_bytes32"
          },
          {
            "astId": 4178,
            "contract": "contracts/ValidationRegistry.sol:ValidationRegistry",
            "label": "tag",
            "offset": 0,
            "slot": "3",
            "type": "t_bytes32"
          },
          {
            "astId": 4180,
            "contract": "contracts/ValidationRegistry.sol:ValidationRegistry",
            "label": "lastUpdate",
            "offset": 0,
            "slot": "4",
            "type": "t_uint256"
          }
        ],
        "numberOfBytes": "160"
      },
      "t_uint256": {
        "encoding": "inplace",
        "label": "uint256",
        "numberOfBytes": "32"
      },
      "t_uint8": {
        "encoding": "inplace",
        "label": "uint8",
        "numberOfBytes": "1"
      }
    }
  }
}